{
  "contractName": "authentification",
  "abi": [
    {
      "anonymous": false,
      "inputs": [
        {
          "indexed": true,
          "internalType": "uint256",
          "name": "date",
          "type": "uint256"
        },
        {
          "indexed": false,
          "internalType": "string",
          "name": "value",
          "type": "string"
        }
      ],
      "name": "retour",
      "type": "event"
    },
    {
      "constant": true,
      "inputs": [],
      "name": "owner",
      "outputs": [
        {
          "internalType": "address",
          "name": "",
          "type": "address"
        }
      ],
      "payable": false,
      "stateMutability": "view",
      "type": "function"
    },
    {
      "constant": false,
      "inputs": [
        {
          "internalType": "address",
          "name": "adr",
          "type": "address"
        },
        {
          "internalType": "string[]",
          "name": "_app",
          "type": "string[]"
        }
      ],
      "name": "ajouterUtilisateur",
      "outputs": [
        {
          "internalType": "string",
          "name": "",
          "type": "string"
        }
      ],
      "payable": false,
      "stateMutability": "nonpayable",
      "type": "function"
    },
    {
      "constant": false,
      "inputs": [
        {
          "internalType": "address",
          "name": "adr",
          "type": "address"
        }
      ],
      "name": "supprimerUtilisateur",
      "outputs": [],
      "payable": false,
      "stateMutability": "nonpayable",
      "type": "function"
    },
    {
      "constant": false,
      "inputs": [
        {
          "internalType": "address",
          "name": "adr",
          "type": "address"
        },
        {
          "internalType": "string[]",
          "name": "_app",
          "type": "string[]"
        }
      ],
      "name": "modifierUtilisateur",
      "outputs": [
        {
          "internalType": "string",
          "name": "",
          "type": "string"
        }
      ],
      "payable": false,
      "stateMutability": "nonpayable",
      "type": "function"
    },
    {
      "constant": true,
      "inputs": [],
      "name": "voirUtilisateurs",
      "outputs": [
        {
          "internalType": "address[]",
          "name": "",
          "type": "address[]"
        }
      ],
      "payable": false,
      "stateMutability": "view",
      "type": "function"
    },
    {
      "constant": true,
      "inputs": [
        {
          "internalType": "address",
          "name": "_address",
          "type": "address"
        }
      ],
      "name": "voirUtilisateur",
      "outputs": [
        {
          "internalType": "string[]",
          "name": "",
          "type": "string[]"
        }
      ],
      "payable": false,
      "stateMutability": "view",
      "type": "function"
    },
    {
      "constant": true,
      "inputs": [
        {
          "internalType": "address",
          "name": "adr",
          "type": "address"
        },
        {
          "internalType": "string",
          "name": "_app",
          "type": "string"
        },
        {
          "internalType": "bytes32",
          "name": "hash",
          "type": "bytes32"
        },
        {
          "internalType": "bytes",
          "name": "signature",
          "type": "bytes"
        }
      ],
      "name": "authentication",
      "outputs": [
        {
          "internalType": "string",
          "name": "",
          "type": "string"
        }
      ],
      "payable": false,
      "stateMutability": "view",
      "type": "function"
    }
  ],
  "bytecode": "0x6080604052336000806101000a81548173ffffffffffffffffffffffffffffffffffffffff021916908373ffffffffffffffffffffffffffffffffffffffff16021790555034801561005057600080fd5b50611c1d806100606000396000f3fe608060405234801561001057600080fd5b506004361061007d5760003560e01c80638da5cb5b1161005b5780638da5cb5b146100fe578063c0cc973d1461011c578063f0f320c51461014c578063f79369fa1461017c5761007d565b80630e5ff5fe146100825780634fcf608c1461009e57806384ce0148146100ce575b600080fd5b61009c60048036036100979190810190611162565b61019a565b005b6100b860048036036100b3919081019061118b565b6103c6565b6040516100c5919061183b565b60405180910390f35b6100e860048036036100e391908101906111df565b610598565b6040516100f5919061183b565b60405180910390f35b61010661082e565b6040516101139190611797565b60405180910390f35b61013660048036036101319190810190611162565b610853565b60405161014391906117d4565b60405180910390f35b6101666004803603610161919081019061118b565b61097b565b604051610173919061183b565b60405180910390f35b610184610b33565b60405161019191906117b2565b60405180910390f35b6000809054906101000a900473ffffffffffffffffffffffffffffffffffffffff1673ffffffffffffffffffffffffffffffffffffffff163373ffffffffffffffffffffffffffffffffffffffff16141561038c576101f881610c6a565b1561035057600080600090505b60028054905081101561028e578273ffffffffffffffffffffffffffffffffffffffff166002828154811061023657fe5b9060005260206000200160009054906101000a900473ffffffffffffffffffffffffffffffffffffffff1673ffffffffffffffffffffffffffffffffffffffff161415610281578091505b8080600101915050610205565b506002818154811061029c57fe5b9060005260206000200160006101000a81549073ffffffffffffffffffffffffffffffffffffffff0219169055600160008373ffffffffffffffffffffffffffffffffffffffff1673ffffffffffffffffffffffffffffffffffffffff16815260200190815260200160002060006103149190610e2e565b427f4b49773f56e8d86e7ddabd2e09adbd801b07e67fc4318754c13663b4ae5121e36040516103429061187d565b60405180910390a250610387565b427f4b49773f56e8d86e7ddabd2e09adbd801b07e67fc4318754c13663b4ae5121e360405161037e906118bd565b60405180910390a25b6103c3565b427f4b49773f56e8d86e7ddabd2e09adbd801b07e67fc4318754c13663b4ae5121e36040516103ba9061185d565b60405180910390a25b50565b60606000809054906101000a900473ffffffffffffffffffffffffffffffffffffffff1673ffffffffffffffffffffffffffffffffffffffff163373ffffffffffffffffffffffffffffffffffffffff16141561055b5761042683610c6a565b61051f5760028390806001815401808255809150509060018203906000526020600020016000909192909190916101000a81548173ffffffffffffffffffffffffffffffffffffffff021916908373ffffffffffffffffffffffffffffffffffffffff1602179055505081600160008573ffffffffffffffffffffffffffffffffffffffff1673ffffffffffffffffffffffffffffffffffffffff16815260200190815260200160002090805190602001906104e3929190610e4f565b50427f4b49773f56e8d86e7ddabd2e09adbd801b07e67fc4318754c13663b4ae5121e36040516105129061191d565b60405180910390a2610556565b427f4b49773f56e8d86e7ddabd2e09adbd801b07e67fc4318754c13663b4ae5121e360405161054d906118fd565b60405180910390a25b610592565b427f4b49773f56e8d86e7ddabd2e09adbd801b07e67fc4318754c13663b4ae5121e36040516105899061189d565b60405180910390a25b92915050565b60606105a385610c6a565b1561080a578473ffffffffffffffffffffffffffffffffffffffff166105c98484610d0b565b73ffffffffffffffffffffffffffffffffffffffff1614156107cd57600080905060008090505b600160008873ffffffffffffffffffffffffffffffffffffffff1673ffffffffffffffffffffffffffffffffffffffff1681526020019081526020016000208054905081101561074757610730600160008973ffffffffffffffffffffffffffffffffffffffff1673ffffffffffffffffffffffffffffffffffffffff168152602001908152602001600020828154811061068757fe5b906000526020600020018054600181600116156101000203166002900480601f0160208091040260200160405190810160405280929190818152602001828054600181600116156101000203166002900480156107255780601f106106fa57610100808354040283529160200191610725565b820191906000526020600020905b81548152906001019060200180831161070857829003601f168201915b505050505087610dd5565b1561073a57600191505b80806001019150506105f0565b50600181141561078f576040518060400160405280600281526020017f6f6b000000000000000000000000000000000000000000000000000000000000815250915050610826565b6040518060400160405280600d81526020017f6e6f6e2061747472696275c3a900000000000000000000000000000000000000815250915050610826565b6040518060400160405280601581526020017f7369676e6174757265206e6f6e2076616c61626c6500000000000000000000008152509050610826565b604051806060016040528060258152602001611bb66025913990505b949350505050565b6000809054906101000a900473ffffffffffffffffffffffffffffffffffffffff1681565b6060600160008373ffffffffffffffffffffffffffffffffffffffff1673ffffffffffffffffffffffffffffffffffffffff168152602001908152602001600020805480602002602001604051908101604052809291908181526020016000905b82821015610970578382906000526020600020018054600181600116156101000203166002900480601f01602080910402602001604051908101604052809291908181526020018280546001816001161561010002031660029004801561095c5780601f106109315761010080835404028352916020019161095c565b820191906000526020600020905b81548152906001019060200180831161093f57829003601f168201915b5050505050815260200190600101906108b4565b505050509050919050565b60606000809054906101000a900473ffffffffffffffffffffffffffffffffffffffff1673ffffffffffffffffffffffffffffffffffffffff163373ffffffffffffffffffffffffffffffffffffffff161415610af6576109db83610c6a565b15610aba57600160008473ffffffffffffffffffffffffffffffffffffffff1673ffffffffffffffffffffffffffffffffffffffff1681526020019081526020016000206000610a2b9190610e2e565b81600160008573ffffffffffffffffffffffffffffffffffffffff1673ffffffffffffffffffffffffffffffffffffffff1681526020019081526020016000209080519060200190610a7e929190610e4f565b50427f4b49773f56e8d86e7ddabd2e09adbd801b07e67fc4318754c13663b4ae5121e3604051610aad9061193d565b60405180910390a2610af1565b427f4b49773f56e8d86e7ddabd2e09adbd801b07e67fc4318754c13663b4ae5121e3604051610ae8906118dd565b60405180910390a25b610b2d565b427f4b49773f56e8d86e7ddabd2e09adbd801b07e67fc4318754c13663b4ae5121e3604051610b249061189d565b60405180910390a25b92915050565b6060803381600081518110610b4457fe5b602002602001019073ffffffffffffffffffffffffffffffffffffffff16908173ffffffffffffffffffffffffffffffffffffffff16815250506000809054906101000a900473ffffffffffffffffffffffffffffffffffffffff1673ffffffffffffffffffffffffffffffffffffffff163373ffffffffffffffffffffffffffffffffffffffff161415610c62576002805480602002602001604051908101604052809291908181526020018280548015610c5557602002820191906000526020600020905b8160009054906101000a900473ffffffffffffffffffffffffffffffffffffffff1673ffffffffffffffffffffffffffffffffffffffff1681526020019060010190808311610c0b575b5050505050915050610c67565b809150505b90565b6000806000905060008090505b600280549050811015610d01578373ffffffffffffffffffffffffffffffffffffffff1660028281548110610ca857fe5b9060005260206000200160009054906101000a900473ffffffffffffffffffffffffffffffffffffffff1673ffffffffffffffffffffffffffffffffffffffff161415610cf457600191505b8080600101915050610c77565b5080915050919050565b6000806000806041855114610d265760009350505050610dcf565b6020850151925060408501519150606085015160001a9050601b8160ff161015610d5157601b810190505b601b8160ff1614158015610d695750601c8160ff1614155b15610d7a5760009350505050610dcf565b60018682858560405160008152602001604052604051610d9d94939291906117f6565b6020604051602081039080840390855afa158015610dbf573d6000803e3d6000fd5b5050506020604051035193505050505b92915050565b600081604051602001610de89190611780565b6040516020818303038152906040528051906020012083604051602001610e0f9190611780565b6040516020818303038152906040528051906020012014905092915050565b5080546000825590600052602060002090810190610e4c9190610eaf565b50565b828054828255906000526020600020908101928215610e9e579160200282015b82811115610e9d578251829080519060200190610e8d929190610edb565b5091602001919060010190610e6f565b5b509050610eab9190610eaf565b5090565b610ed891905b80821115610ed45760008181610ecb9190610f5b565b50600101610eb5565b5090565b90565b828054600181600116156101000203166002900490600052602060002090601f016020900481019282601f10610f1c57805160ff1916838001178555610f4a565b82800160010185558215610f4a579182015b82811115610f49578251825591602001919060010190610f2e565b5b509050610f579190610fa3565b5090565b50805460018160011615610100020316600290046000825580601f10610f815750610fa0565b601f016020900490600052602060002090810190610f9f9190610fa3565b5b50565b610fc591905b80821115610fc1576000816000905550600101610fa9565b5090565b90565b600081359050610fd781611b87565b92915050565b600082601f830112610fee57600080fd5b8135611001610ffc8261198a565b61195d565b9150818183526020840193506020810190508360005b83811015611047578135860161102d88826110ba565b845260208401935060208301925050600181019050611017565b5050505092915050565b60008135905061106081611b9e565b92915050565b600082601f83011261107757600080fd5b813561108a611085826119b2565b61195d565b915080825260208301602083018583830111156110a657600080fd5b6110b1838284611b34565b50505092915050565b600082601f8301126110cb57600080fd5b81356110de6110d9826119de565b61195d565b915080825260208301602083018583830111156110fa57600080fd5b611105838284611b34565b50505092915050565b600082601f83011261111f57600080fd5b813561113261112d82611a0a565b61195d565b9150808252602083016020830185838301111561114e57600080fd5b611159838284611b34565b50505092915050565b60006020828403121561117457600080fd5b600061118284828501610fc8565b91505092915050565b6000806040838503121561119e57600080fd5b60006111ac85828601610fc8565b925050602083013567ffffffffffffffff8111156111c957600080fd5b6111d585828601610fdd565b9150509250929050565b600080600080608085870312156111f557600080fd5b600061120387828801610fc8565b945050602085013567ffffffffffffffff81111561122057600080fd5b61122c8782880161110e565b935050604061123d87828801611051565b925050606085013567ffffffffffffffff81111561125a57600080fd5b61126687828801611066565b91505092959194509250565b600061127e838361129e565b60208301905092915050565b60006112968383611408565b905092915050565b6112a781611aeb565b82525050565b6112b681611aeb565b82525050565b60006112c782611a56565b6112d18185611a9c565b93506112dc83611a36565b8060005b8381101561130d5781516112f48882611272565b97506112ff83611a82565b9250506001810190506112e0565b5085935050505092915050565b600061132582611a61565b61132f8185611aad565b93508360208202850161134185611a46565b8060005b8581101561137d578484038952815161135e858261128a565b945061136983611a8f565b925060208a01995050600181019050611345565b50829750879550505050505092915050565b61139881611afd565b82525050565b60006113a982611a77565b6113b38185611acf565b93506113c3818560208601611b43565b6113cc81611b76565b840191505092915050565b60006113e282611a77565b6113ec8185611ae0565b93506113fc818560208601611b43565b80840191505092915050565b600061141382611a6c565b61141d8185611abe565b935061142d818560208601611b43565b61143681611b76565b840191505092915050565b600061144e603383611acf565b91507f20636574746520666f6e6374696f6e20657374206578636c757369766520612060008301527f6c2761646d696e6973747261746575722e2e2e000000000000000000000000006020830152604082019050919050565b60006114b4602483611acf565b91507f7574696c69736174657572207375707072696dc3a920617665632073756363c360008301527fa8732e2e000000000000000000000000000000000000000000000000000000006020830152604082019050919050565b600061151a602f83611acf565b91507f636574746520666f6e6374696f6e20657374206578636c75736976652061206c60008301527f2761646d696e69737472617465757200000000000000000000000000000000006020830152604082019050919050565b6000611580602683611acf565b91507f206365747465207574696c697361746575722065737420696e6578697374616e60008301527f742e2e2e2e2e00000000000000000000000000000000000000000000000000006020830152604082019050919050565b60006115e6602c83611acf565b91507f7574696c6973617465757220696e6578697374616e742e2e2e70656e73657a2060008301527f61206c27616a6f757465722000000000000000000000000000000000000000006020830152604082019050919050565b600061164c602c83611acf565b91507f7574696c69736174657572206578697374616e742e2e2e70656e73657a20612060008301527f6c65206d6f646f666965722000000000000000000000000000000000000000006020830152604082019050919050565b60006116b2602283611acf565b91507f7574696c6973617465757220616a6f7574c3a920617665632073756363c3a87360008301527f2e2e0000000000000000000000000000000000000000000000000000000000006020830152604082019050919050565b6000611718602383611acf565b91507f7574696c69736174657572206d6f64696669c3a920617665632073756363c3a860008301527f732e2e00000000000000000000000000000000000000000000000000000000006020830152604082019050919050565b61177a81611b27565b82525050565b600061178c82846113d7565b915081905092915050565b60006020820190506117ac60008301846112ad565b92915050565b600060208201905081810360008301526117cc81846112bc565b905092915050565b600060208201905081810360008301526117ee818461131a565b905092915050565b600060808201905061180b600083018761138f565b6118186020830186611771565b611825604083018561138f565b611832606083018461138f565b95945050505050565b60006020820190508181036000830152611855818461139e565b905092915050565b6000602082019050818103600083015261187681611441565b9050919050565b60006020820190508181036000830152611896816114a7565b9050919050565b600060208201905081810360008301526118b68161150d565b9050919050565b600060208201905081810360008301526118d681611573565b9050919050565b600060208201905081810360008301526118f6816115d9565b9050919050565b600060208201905081810360008301526119168161163f565b9050919050565b60006020820190508181036000830152611936816116a5565b9050919050565b600060208201905081810360008301526119568161170b565b9050919050565b6000604051905081810181811067ffffffffffffffff8211171561198057600080fd5b8060405250919050565b600067ffffffffffffffff8211156119a157600080fd5b602082029050602081019050919050565b600067ffffffffffffffff8211156119c957600080fd5b601f19601f8301169050602081019050919050565b600067ffffffffffffffff8211156119f557600080fd5b601f19601f8301169050602081019050919050565b600067ffffffffffffffff821115611a2157600080fd5b601f19601f8301169050602081019050919050565b6000819050602082019050919050565b6000819050602082019050919050565b600081519050919050565b600081519050919050565b600081519050919050565b600081519050919050565b6000602082019050919050565b6000602082019050919050565b600082825260208201905092915050565b600082825260208201905092915050565b600082825260208201905092915050565b600082825260208201905092915050565b600081905092915050565b6000611af682611b07565b9050919050565b6000819050919050565b600073ffffffffffffffffffffffffffffffffffffffff82169050919050565b600060ff82169050919050565b82818337600083830152505050565b60005b83811015611b61578082015181840152602081019050611b46565b83811115611b70576000848401525b50505050565b6000601f19601f8301169050919050565b611b9081611aeb565b8114611b9b57600080fd5b50565b611ba781611afd565b8114611bb257600080fd5b5056fe6365747465207574696c697361746575722065737420696e6578697374616e742e2e2e2e2ea365627a7a7231582074a865f7fc7658a728753cc61699305a84302c52f8953c34979f8f5d6f44fdae6c6578706572696d656e74616cf564736f6c63430005100040",
  "source": "pragma experimental ABIEncoderV2;\npragma solidity ^0.5.15;\n\ncontract authentification{\n    \n    //*****************************************************************************partie declarative ******************************************************************************************/\n  \n    //*****le possesseur du contrat*******//\n  \n  address public owner = msg.sender;\n  \n  \n  \n     //******reponse event *****************// \n     \n  event retour(\n\n     uint indexed date,\n     string value);\n  \n  \n  \n  \n     //**** association de chaque adress les application auquelles elle a le droit****//\n     \n  mapping(address => string[]) private droits;\n  \n  \n  \n  \n  \n     //*******liste globale des utilisateurs qui sont ajouts********//\n     \n  address[] private utilisateurs;\n  \n  \n  //********************************************************************************fonctions  administratives***********************************************************************************///\n\n      //**************ajout utilisateur**********************//\n      \n      function ajouterUtilisateur (address adr, string[] memory _app) public returns (string memory){\n          \n        // c'est l'owner qui a le droit a l'ajout des utilisateur\n    \n       if( msg.sender == owner){\n       \n       //address ne doit pas exister\n       \n       if ( !exist(adr)){       \n         \n         \n          //  ajout de l'utilisateur a la liste\n          \n            utilisateurs.push(adr);\n            \n          //creation d'un mapping qui va contenir les applications permises\n          \n             droits[adr] = _app;\n\n             emit retour(now, \"utilisateur ajout avec succs..\");\n\n             } \n            else emit retour(now, \"utilisateur existant...pensez a le modofier \");\n             }\n\n\n            else emit retour(now, \"cette fonction est exclusive a l'administrateur\");\n          \n       }\n\n      //**************supprimer utilisateur**********************//\n\n       function supprimerUtilisateur (address adr) public  {\n          \n        // c'est l'owner qui a le droit a l'ajout des utilisateur\n\n         if( msg.sender == owner){\n       \n       //address ne doit pas exister\n       \n       if ( exist(adr)){ \n              \n          //  la suppressionde l'utilisateur a la liste\n          \n             uint b;\n             \n            for (uint i = 0; i < utilisateurs.length; i++) \n            \n                 {\n                   if ( utilisateurs[i] == adr)\n                   b = i;\n                 } \n                 \n            delete utilisateurs[b];\n\n            delete droits[adr] ;\n\n            emit retour(now, \"utilisateur supprim avec succs..\");\n\n            }\n\n            else emit retour(now,\" cette utilisateur est inexistant.....\" );\n         }\n\n         else emit retour(now,\" cette fonction est exclusive a l'administrateur...\" );        \n       \n       }\n\n       //**************modifier utilisateur**********************//\n        \n       function modifierUtilisateur (address adr, string[] memory _app) public returns (string memory){\n          \n        // c'est l'owner qui a le droit a l'ajout des utilisateur\n    \n       if( msg.sender == owner){\n       \n       //address ne doit pas exister\n       \n       if ( exist(adr)){       \n         \n                     \n          //creation d'un mapping qui va contenir les applications permises\n          delete droits[adr];\n             droits[adr] = _app;\n\n             emit retour(now, \"utilisateur modifi avec succs..\");\n\n             } \n            else emit retour(now, \"utilisateur inexistant...pensez a l'ajouter \");\n             }\n\n\n            else emit retour(now, \"cette fonction est exclusive a l'administrateur\");\n          \n       }\n       \n\n      //**************voir toutes les address**********************//\n      \n\n\n        function voirUtilisateurs () public view returns (address[] memory)  {\n            \n            address[] memory reponses;//[1]  \n\n          reponses[0] =  msg.sender;\n\n         if( msg.sender == owner){\n\n            return utilisateurs;\n\n         }\n         \n         else return  reponses;\n     \n          \n\n         } \n         \n         \n         \n      //**************voir utilisateur**********************//\n         \n         function voirUtilisateur (address _address) public view returns (string[] memory)  {\n\n           \n          \n\n        \n          \n              return droits[_address];\n\n        \n        \n        }\n\n  //********************************************************************************fonctions  authentification***********************************************************************************///\n  \n  \n         function authentication(address adr,string memory _app, bytes32 hash, bytes memory signature) public  view returns(string memory){\n             \n             \n             //address  doit  exister\n       \n       if (exist(adr)) {\n       \n       if (recover(hash,signature) == adr){\n       \n             uint b= 0;\n            \n             for (uint i = 0; i < droits[adr].length; i++) {\n                 \n                 if ( compareStrings(droits[adr][i], _app) ) b = 1;\n                 \n             }\n             \n             if (b==1) return \"ok\";\n\n             else return \"non attribu\";\n             \n       } else return \"signature non valable\";\n                   \n      }\n      else return \"cette utilisateur est inexistant.....\";\n         \n         }\n\n\n  //********************************************************************************fonctions  auxiliaires***********************************************************************************///\n\n\n\n         //**************verifier existance utilisateur**********************//\n         \n        function exist (address _address)    private view returns (bool){\n            \n         bool b = false;\n         \n         for (uint i = 0; i < utilisateurs.length; i++) {\n             \n            if ( utilisateurs[i] == _address)\n            \n             b = true;\n          }\n          \n             return b;\n\n        }  \n\n\n     function compareStrings(string memory a, string memory b) private  pure returns (bool) {\n    return (keccak256(abi.encodePacked((a))) == keccak256(abi.encodePacked((b))));\n           }\n           \n           \n           \n     \n        function recover(bytes32 hash, bytes memory signature) private  pure returns (address){\n            \n          bytes32 r;\n          bytes32 s;\n          uint8 v;\n\n          // Check the signature length\n          if (signature.length != 65) {\n             return (address(0));\n            }\n\n         // Divide the signature in r, s and v variables\n         // ecrecover takes the signature parameters, and the only way to get them\n         // currently is to use assembly.\n         // solium-disable-next-line security/no-inline-assembly\n         assembly {\n         r := mload(add(signature, 0x20))\n         s := mload(add(signature, 0x40))\n         v := byte(0, mload(add(signature, 0x60)))\n         }\n\n          // Version of signature should be 27 or 28, but 0 and 1 are also possible versions\n         if (v < 27) {\n          v += 27;\n          }\n\n         // If the version is correct return the signer address\n         if (v != 27 && v != 28) {\n          return (address(0));\n           } else {\n         // solium-disable-next-line arg-overflow\n        return ecrecover(hash, v, r, s);\n    }\n  }\n\n}\n",
  "sourcePath": "/home/abdettaib/Musique/administrateur/contracts/authentification.sol",
  "compiler": {
    "name": "solc",
    "version": "0.5.16+commit.9c3226ce.Emscripten.clang"
  },
  "schemaVersion": "3.4.0",
  "updatedAt": "2021-07-01T20:25:09.585Z",
  "networkType": "ethereum",
  "devdoc": {
    "methods": {}
  },
  "userdoc": {
    "methods": {}
  }
}